{
  "contractName": "Escrow",
  "abi": [
    {
      "inputs": [
        {
          "internalType": "address",
          "name": "_ethUsdAdress",
          "type": "address"
        }
      ],
      "stateMutability": "nonpayable",
      "type": "constructor"
    },
    {
      "inputs": [
        {
          "internalType": "address",
          "name": "",
          "type": "address"
        }
      ],
      "name": "payments",
      "outputs": [
        {
          "internalType": "uint256",
          "name": "",
          "type": "uint256"
        }
      ],
      "stateMutability": "view",
      "type": "function",
      "constant": true
    },
    {
      "inputs": [],
      "name": "tokenGHN",
      "outputs": [
        {
          "internalType": "contract GoodHoneyToken",
          "name": "",
          "type": "address"
        }
      ],
      "stateMutability": "view",
      "type": "function",
      "constant": true
    },
    {
      "inputs": [],
      "name": "tokenUSDC",
      "outputs": [
        {
          "internalType": "contract UsdcToken",
          "name": "",
          "type": "address"
        }
      ],
      "stateMutability": "view",
      "type": "function",
      "constant": true
    },
    {
      "inputs": [],
      "name": "totalPayments",
      "outputs": [
        {
          "internalType": "uint256",
          "name": "",
          "type": "uint256"
        }
      ],
      "stateMutability": "view",
      "type": "function",
      "constant": true
    },
    {
      "inputs": [],
      "name": "balanceOfToken",
      "outputs": [
        {
          "internalType": "uint256",
          "name": "",
          "type": "uint256"
        }
      ],
      "stateMutability": "view",
      "type": "function",
      "constant": true
    },
    {
      "inputs": [
        {
          "internalType": "address",
          "name": "dest",
          "type": "address"
        }
      ],
      "name": "withdrawPaymentsUSDC",
      "outputs": [],
      "stateMutability": "payable",
      "type": "function",
      "payable": true
    },
    {
      "inputs": [
        {
          "internalType": "address",
          "name": "dest",
          "type": "address"
        }
      ],
      "name": "withdrawPaymentsGHNY",
      "outputs": [],
      "stateMutability": "payable",
      "type": "function",
      "payable": true
    },
    {
      "inputs": [
        {
          "internalType": "address",
          "name": "dest",
          "type": "address"
        },
        {
          "internalType": "uint256",
          "name": "amount",
          "type": "uint256"
        }
      ],
      "name": "SendMoneyTo",
      "outputs": [],
      "stateMutability": "nonpayable",
      "type": "function"
    },
    {
      "inputs": [
        {
          "internalType": "uint256",
          "name": "amount",
          "type": "uint256"
        }
      ],
      "name": "getUsdPrice",
      "outputs": [
        {
          "internalType": "uint256",
          "name": "",
          "type": "uint256"
        }
      ],
      "stateMutability": "view",
      "type": "function",
      "constant": true
    }
  ],
  "bytecode": "0x60806040523480156200001157600080fd5b5060405162003e6038038062003e60833981810160405281019062000037919062000189565b604051620000459062000156565b604051809103906000f08015801562000062573d6000803e3d6000fd5b50600160006101000a81548173ffffffffffffffffffffffffffffffffffffffff021916908373ffffffffffffffffffffffffffffffffffffffff160217905550604051620000b19062000164565b604051809103906000f080158015620000ce573d6000803e3d6000fd5b50600260006101000a81548173ffffffffffffffffffffffffffffffffffffffff021916908373ffffffffffffffffffffffffffffffffffffffff160217905550806000806101000a81548173ffffffffffffffffffffffffffffffffffffffff021916908373ffffffffffffffffffffffffffffffffffffffff1602179055505062000203565b6117fc8062000e6883390190565b6117fc806200266483390190565b6000815190506200018381620001e9565b92915050565b6000602082840312156200019c57600080fd5b6000620001ac8482850162000172565b91505092915050565b6000620001c282620001c9565b9050919050565b600073ffffffffffffffffffffffffffffffffffffffff82169050919050565b620001f481620001b5565b81146200020057600080fd5b50565b610c5580620002136000396000f3fe6080604052600436106100855760003560e01c8063c86d404011610059578063c86d404014610139578063d45f00d414610164578063e2982c211461018f578063e90c8cc1146101cc578063f7ba7bee146101f557610085565b80625b44871461008a5780632695b3a2146100b55780636b0f1c81146100f257806380ac05701461011d575b600080fd5b34801561009657600080fd5b5061009f610211565b6040516100ac9190610a1c565b60405180910390f35b3480156100c157600080fd5b506100dc60048036038101906100d79190610914565b610217565b6040516100e99190610a1c565b60405180910390f35b3480156100fe57600080fd5b5061010761024c565b6040516101149190610a1c565b60405180910390f35b61013760048036038101906101329190610886565b6102fe565b005b34801561014557600080fd5b5061014e6104e2565b60405161015b9190610a01565b60405180910390f35b34801561017057600080fd5b50610179610508565b60405161018691906109e6565b60405180910390f35b34801561019b57600080fd5b506101b660048036038101906101b19190610886565b61052e565b6040516101c39190610a1c565b60405180910390f35b3480156101d857600080fd5b506101f360048036038101906101ee91906108af565b610546565b005b61020f600480360381019061020a9190610886565b610554565b005b60045481565b600080643c775cf572905060006402540be40082856102369190610a8d565b6102409190610a8d565b90508092505050919050565b6000600160009054906101000a900473ffffffffffffffffffffffffffffffffffffffff1673ffffffffffffffffffffffffffffffffffffffff166370a08231336040518263ffffffff1660e01b81526004016102a991906109a2565b60206040518083038186803b1580156102c157600080fd5b505afa1580156102d5573d6000803e3d6000fd5b505050506040513d601f19601f820116820180604052508101906102f9919061093d565b905090565b6000600360008373ffffffffffffffffffffffffffffffffffffffff1673ffffffffffffffffffffffffffffffffffffffff16815260200190815260200160002054141561034b57600080fd5b61039f600360008373ffffffffffffffffffffffffffffffffffffffff1673ffffffffffffffffffffffffffffffffffffffff1681526020019081526020016000205460045461074490919063ffffffff16565b6004819055506000600360008373ffffffffffffffffffffffffffffffffffffffff1673ffffffffffffffffffffffffffffffffffffffff1681526020019081526020016000205490506000600360008473ffffffffffffffffffffffffffffffffffffffff1673ffffffffffffffffffffffffffffffffffffffff16815260200190815260200160002081905550600260009054906101000a900473ffffffffffffffffffffffffffffffffffffffff1673ffffffffffffffffffffffffffffffffffffffff1663a9059cbb83836040518363ffffffff1660e01b815260040161048b9291906109bd565b602060405180830381600087803b1580156104a557600080fd5b505af11580156104b9573d6000803e3d6000fd5b505050506040513d601f19601f820116820180604052508101906104dd91906108eb565b505050565b600260009054906101000a900473ffffffffffffffffffffffffffffffffffffffff1681565b600160009054906101000a900473ffffffffffffffffffffffffffffffffffffffff1681565b60036020528060005260406000206000915090505481565b610550828261075a565b5050565b6000600360008373ffffffffffffffffffffffffffffffffffffffff1673ffffffffffffffffffffffffffffffffffffffff1681526020019081526020016000205414156105a157600080fd5b6105f5600360008373ffffffffffffffffffffffffffffffffffffffff1673ffffffffffffffffffffffffffffffffffffffff1681526020019081526020016000205460045461074490919063ffffffff16565b6004819055506000600a600360008473ffffffffffffffffffffffffffffffffffffffff1673ffffffffffffffffffffffffffffffffffffffff168152602001908152602001600020546106499190610a8d565b90506000600360008473ffffffffffffffffffffffffffffffffffffffff1673ffffffffffffffffffffffffffffffffffffffff16815260200190815260200160002081905550600160009054906101000a900473ffffffffffffffffffffffffffffffffffffffff1673ffffffffffffffffffffffffffffffffffffffff1663a9059cbb83836040518363ffffffff1660e01b81526004016106ed9291906109bd565b602060405180830381600087803b15801561070757600080fd5b505af115801561071b573d6000803e3d6000fd5b505050506040513d601f19601f8201168201806040525081019061073f91906108eb565b505050565b600081836107529190610ae7565b905092915050565b600061076582610217565b90506107b981600360008673ffffffffffffffffffffffffffffffffffffffff1673ffffffffffffffffffffffffffffffffffffffff1681526020019081526020016000205461081c90919063ffffffff16565b600360008573ffffffffffffffffffffffffffffffffffffffff1673ffffffffffffffffffffffffffffffffffffffff168152602001908152602001600020819055506108118160045461081c90919063ffffffff16565b600481905550505050565b6000818361082a9190610a37565b905092915050565b60008135905061084181610bda565b92915050565b60008151905061085681610bf1565b92915050565b60008135905061086b81610c08565b92915050565b60008151905061088081610c08565b92915050565b60006020828403121561089857600080fd5b60006108a684828501610832565b91505092915050565b600080604083850312156108c257600080fd5b60006108d085828601610832565b92505060206108e18582860161085c565b9150509250929050565b6000602082840312156108fd57600080fd5b600061090b84828501610847565b91505092915050565b60006020828403121561092657600080fd5b60006109348482850161085c565b91505092915050565b60006020828403121561094f57600080fd5b600061095d84828501610871565b91505092915050565b61096f81610b1b565b82525050565b61097e81610b63565b82525050565b61098d81610b87565b82525050565b61099c81610b59565b82525050565b60006020820190506109b76000830184610966565b92915050565b60006040820190506109d26000830185610966565b6109df6020830184610993565b9392505050565b60006020820190506109fb6000830184610975565b92915050565b6000602082019050610a166000830184610984565b92915050565b6000602082019050610a316000830184610993565b92915050565b6000610a4282610b59565b9150610a4d83610b59565b9250827fffffffffffffffffffffffffffffffffffffffffffffffffffffffffffffffff03821115610a8257610a81610bab565b5b828201905092915050565b6000610a9882610b59565b9150610aa383610b59565b9250817fffffffffffffffffffffffffffffffffffffffffffffffffffffffffffffffff0483118215151615610adc57610adb610bab565b5b828202905092915050565b6000610af282610b59565b9150610afd83610b59565b925082821015610b1057610b0f610bab565b5b828203905092915050565b6000610b2682610b39565b9050919050565b60008115159050919050565b600073ffffffffffffffffffffffffffffffffffffffff82169050919050565b6000819050919050565b6000610b6e82610b75565b9050919050565b6000610b8082610b39565b9050919050565b6000610b9282610b99565b9050919050565b6000610ba482610b39565b9050919050565b7f4e487b7100000000000000000000000000000000000000000000000000000000600052601160045260246000fd5b610be381610b1b565b8114610bee57600080fd5b50565b610bfa81610b2d565b8114610c0557600080fd5b50565b610c1181610b59565b8114610c1c57600080fd5b5056fea2646970667358221220ff6745038cd837947891a260cf60fb356fb8a7eb7bf4304ff29f2c5e959c192364736f6c6343000801003360806040523480156200001157600080fd5b506040518060400160405280600a81526020017f476f6f6420486f6e6579000000000000000000000000000000000000000000008152506040518060400160405280600381526020017f47484e000000000000000000000000000000000000000000000000000000000081525081600390805190602001906200009692919062000257565b508060049080519060200190620000af92919062000257565b505050620000ce3369d3c21bcecceda1000000620000d460201b60201c565b620004b3565b600073ffffffffffffffffffffffffffffffffffffffff168273ffffffffffffffffffffffffffffffffffffffff16141562000147576040517f08c379a00000000000000000000000000000000000000000000000000000000081526004016200013e906200033f565b60405180910390fd5b6200015b600083836200024d60201b60201c565b80600260008282546200016f91906200038f565b92505081905550806000808473ffffffffffffffffffffffffffffffffffffffff1673ffffffffffffffffffffffffffffffffffffffff1681526020019081526020016000206000828254620001c691906200038f565b925050819055508173ffffffffffffffffffffffffffffffffffffffff16600073ffffffffffffffffffffffffffffffffffffffff167fddf252ad1be2c89b69c2b068fc378daa952ba7f163c4a11628f55a4df523b3ef836040516200022d919062000361565b60405180910390a362000249600083836200025260201b60201c565b5050565b505050565b505050565b8280546200026590620003f6565b90600052602060002090601f016020900481019282620002895760008555620002d5565b82601f10620002a457805160ff1916838001178555620002d5565b82800160010185558215620002d5579182015b82811115620002d4578251825591602001919060010190620002b7565b5b509050620002e49190620002e8565b5090565b5b8082111562000303576000816000905550600101620002e9565b5090565b600062000316601f836200037e565b915062000323826200048a565b602082019050919050565b6200033981620003ec565b82525050565b600060208201905081810360008301526200035a8162000307565b9050919050565b60006020820190506200037860008301846200032e565b92915050565b600082825260208201905092915050565b60006200039c82620003ec565b9150620003a983620003ec565b9250827fffffffffffffffffffffffffffffffffffffffffffffffffffffffffffffffff03821115620003e157620003e06200042c565b5b828201905092915050565b6000819050919050565b600060028204905060018216806200040f57607f821691505b602082108114156200042657620004256200045b565b5b50919050565b7f4e487b7100000000000000000000000000000000000000000000000000000000600052601160045260246000fd5b7f4e487b7100000000000000000000000000000000000000000000000000000000600052602260045260246000fd5b7f45524332303a206d696e7420746f20746865207a65726f206164647265737300600082015250565b61133980620004c36000396000f3fe608060405234801561001057600080fd5b50600436106100a95760003560e01c80633950935111610071578063395093511461016857806370a082311461019857806395d89b41146101c8578063a457c2d7146101e6578063a9059cbb14610216578063dd62ed3e14610246576100a9565b806306fdde03146100ae578063095ea7b3146100cc57806318160ddd146100fc57806323b872dd1461011a578063313ce5671461014a575b600080fd5b6100b6610276565b6040516100c39190610dff565b60405180910390f35b6100e660048036038101906100e19190610c4d565b610308565b6040516100f39190610de4565b60405180910390f35b61010461032b565b6040516101119190610f01565b60405180910390f35b610134600480360381019061012f9190610bfe565b610335565b6040516101419190610de4565b60405180910390f35b610152610364565b60405161015f9190610f1c565b60405180910390f35b610182600480360381019061017d9190610c4d565b61036d565b60405161018f9190610de4565b60405180910390f35b6101b260048036038101906101ad9190610b99565b610417565b6040516101bf9190610f01565b60405180910390f35b6101d061045f565b6040516101dd9190610dff565b60405180910390f35b61020060048036038101906101fb9190610c4d565b6104f1565b60405161020d9190610de4565b60405180910390f35b610230600480360381019061022b9190610c4d565b6105db565b60405161023d9190610de4565b60405180910390f35b610260600480360381019061025b9190610bc2565b6105fe565b60405161026d9190610f01565b60405180910390f35b60606003805461028590611031565b80601f01602080910402602001604051908101604052809291908181526020018280546102b190611031565b80156102fe5780601f106102d3576101008083540402835291602001916102fe565b820191906000526020600020905b8154815290600101906020018083116102e157829003601f168201915b5050505050905090565b600080610313610685565b905061032081858561068d565b600191505092915050565b6000600254905090565b600080610340610685565b905061034d858285610858565b6103588585856108e4565b60019150509392505050565b60006012905090565b600080610378610685565b905061040c818585600160008673ffffffffffffffffffffffffffffffffffffffff1673ffffffffffffffffffffffffffffffffffffffff16815260200190815260200160002060008973ffffffffffffffffffffffffffffffffffffffff1673ffffffffffffffffffffffffffffffffffffffff168152602001908152602001600020546104079190610f53565b61068d565b600191505092915050565b60008060008373ffffffffffffffffffffffffffffffffffffffff1673ffffffffffffffffffffffffffffffffffffffff168152602001908152602001600020549050919050565b60606004805461046e90611031565b80601f016020809104026020016040519081016040528092919081815260200182805461049a90611031565b80156104e75780601f106104bc576101008083540402835291602001916104e7565b820191906000526020600020905b8154815290600101906020018083116104ca57829003601f168201915b5050505050905090565b6000806104fc610685565b90506000600160008373ffffffffffffffffffffffffffffffffffffffff1673ffffffffffffffffffffffffffffffffffffffff16815260200190815260200160002060008673ffffffffffffffffffffffffffffffffffffffff1673ffffffffffffffffffffffffffffffffffffffff168152602001908152602001600020549050838110156105c2576040517f08c379a00000000000000000000000000000000000000000000000000000000081526004016105b990610ee1565b60405180910390fd5b6105cf828686840361068d565b60019250505092915050565b6000806105e6610685565b90506105f38185856108e4565b600191505092915050565b6000600160008473ffffffffffffffffffffffffffffffffffffffff1673ffffffffffffffffffffffffffffffffffffffff16815260200190815260200160002060008373ffffffffffffffffffffffffffffffffffffffff1673ffffffffffffffffffffffffffffffffffffffff16815260200190815260200160002054905092915050565b600033905090565b600073ffffffffffffffffffffffffffffffffffffffff168373ffffffffffffffffffffffffffffffffffffffff1614156106fd576040517f08c379a00000000000000000000000000000000000000000000000000000000081526004016106f490610ec1565b60405180910390fd5b600073ffffffffffffffffffffffffffffffffffffffff168273ffffffffffffffffffffffffffffffffffffffff16141561076d576040517f08c379a000000000000000000000000000000000000000000000000000000000815260040161076490610e41565b60405180910390fd5b80600160008573ffffffffffffffffffffffffffffffffffffffff1673ffffffffffffffffffffffffffffffffffffffff16815260200190815260200160002060008473ffffffffffffffffffffffffffffffffffffffff1673ffffffffffffffffffffffffffffffffffffffff168152602001908152602001600020819055508173ffffffffffffffffffffffffffffffffffffffff168373ffffffffffffffffffffffffffffffffffffffff167f8c5be1e5ebec7d5bd14f71427d1e84f3dd0314c0f7b2291e5b200ac8c7c3b9258360405161084b9190610f01565b60405180910390a3505050565b600061086484846105fe565b90507fffffffffffffffffffffffffffffffffffffffffffffffffffffffffffffffff81146108de57818110156108d0576040517f08c379a00000000000000000000000000000000000000000000000000000000081526004016108c790610e61565b60405180910390fd5b6108dd848484840361068d565b5b50505050565b600073ffffffffffffffffffffffffffffffffffffffff168373ffffffffffffffffffffffffffffffffffffffff161415610954576040517f08c379a000000000000000000000000000000000000000000000000000000000815260040161094b90610ea1565b60405180910390fd5b600073ffffffffffffffffffffffffffffffffffffffff168273ffffffffffffffffffffffffffffffffffffffff1614156109c4576040517f08c379a00000000000000000000000000000000000000000000000000000000081526004016109bb90610e21565b60405180910390fd5b6109cf838383610b65565b60008060008573ffffffffffffffffffffffffffffffffffffffff1673ffffffffffffffffffffffffffffffffffffffff16815260200190815260200160002054905081811015610a55576040517f08c379a0000000000000000000000000000000000000000000000000000000008152600401610a4c90610e81565b60405180910390fd5b8181036000808673ffffffffffffffffffffffffffffffffffffffff1673ffffffffffffffffffffffffffffffffffffffff16815260200190815260200160002081905550816000808573ffffffffffffffffffffffffffffffffffffffff1673ffffffffffffffffffffffffffffffffffffffff1681526020019081526020016000206000828254610ae89190610f53565b925050819055508273ffffffffffffffffffffffffffffffffffffffff168473ffffffffffffffffffffffffffffffffffffffff167fddf252ad1be2c89b69c2b068fc378daa952ba7f163c4a11628f55a4df523b3ef84604051610b4c9190610f01565b60405180910390a3610b5f848484610b6a565b50505050565b505050565b505050565b600081359050610b7e816112d5565b92915050565b600081359050610b93816112ec565b92915050565b600060208284031215610bab57600080fd5b6000610bb984828501610b6f565b91505092915050565b60008060408385031215610bd557600080fd5b6000610be385828601610b6f565b9250506020610bf485828601610b6f565b9150509250929050565b600080600060608486031215610c1357600080fd5b6000610c2186828701610b6f565b9350506020610c3286828701610b6f565b9250506040610c4386828701610b84565b9150509250925092565b60008060408385031215610c6057600080fd5b6000610c6e85828601610b6f565b9250506020610c7f85828601610b84565b9150509250929050565b610c9281610fbb565b82525050565b6000610ca382610f37565b610cad8185610f42565b9350610cbd818560208601610ffe565b610cc6816110c1565b840191505092915050565b6000610cde602383610f42565b9150610ce9826110d2565b604082019050919050565b6000610d01602283610f42565b9150610d0c82611121565b604082019050919050565b6000610d24601d83610f42565b9150610d2f82611170565b602082019050919050565b6000610d47602683610f42565b9150610d5282611199565b604082019050919050565b6000610d6a602583610f42565b9150610d75826111e8565b604082019050919050565b6000610d8d602483610f42565b9150610d9882611237565b604082019050919050565b6000610db0602583610f42565b9150610dbb82611286565b604082019050919050565b610dcf81610fe7565b82525050565b610dde81610ff1565b82525050565b6000602082019050610df96000830184610c89565b92915050565b60006020820190508181036000830152610e198184610c98565b905092915050565b60006020820190508181036000830152610e3a81610cd1565b9050919050565b60006020820190508181036000830152610e5a81610cf4565b9050919050565b60006020820190508181036000830152610e7a81610d17565b9050919050565b60006020820190508181036000830152610e9a81610d3a565b9050919050565b60006020820190508181036000830152610eba81610d5d565b9050919050565b60006020820190508181036000830152610eda81610d80565b9050919050565b60006020820190508181036000830152610efa81610da3565b9050919050565b6000602082019050610f166000830184610dc6565b92915050565b6000602082019050610f316000830184610dd5565b92915050565b600081519050919050565b600082825260208201905092915050565b6000610f5e82610fe7565b9150610f6983610fe7565b9250827fffffffffffffffffffffffffffffffffffffffffffffffffffffffffffffffff03821115610f9e57610f9d611063565b5b828201905092915050565b6000610fb482610fc7565b9050919050565b60008115159050919050565b600073ffffffffffffffffffffffffffffffffffffffff82169050919050565b6000819050919050565b600060ff82169050919050565b60005b8381101561101c578082015181840152602081019050611001565b8381111561102b576000848401525b50505050565b6000600282049050600182168061104957607f821691505b6020821081141561105d5761105c611092565b5b50919050565b7f4e487b7100000000000000000000000000000000000000000000000000000000600052601160045260246000fd5b7f4e487b7100000000000000000000000000000000000000000000000000000000600052602260045260246000fd5b6000601f19601f8301169050919050565b7f45524332303a207472616e7366657220746f20746865207a65726f206164647260008201527f6573730000000000000000000000000000000000000000000000000000000000602082015250565b7f45524332303a20617070726f766520746f20746865207a65726f20616464726560008201527f7373000000000000000000000000000000000000000000000000000000000000602082015250565b7f45524332303a20696e73756666696369656e7420616c6c6f77616e6365000000600082015250565b7f45524332303a207472616e7366657220616d6f756e742065786365656473206260008201527f616c616e63650000000000000000000000000000000000000000000000000000602082015250565b7f45524332303a207472616e736665722066726f6d20746865207a65726f20616460008201527f6472657373000000000000000000000000000000000000000000000000000000602082015250565b7f45524332303a20617070726f76652066726f6d20746865207a65726f2061646460008201527f7265737300000000000000000000000000000000000000000000000000000000602082015250565b7f45524332303a2064656372656173656420616c6c6f77616e63652062656c6f7760008201527f207a65726f000000000000000000000000000000000000000000000000000000602082015250565b6112de81610fa9565b81146112e957600080fd5b50565b6112f581610fe7565b811461130057600080fd5b5056fea2646970667358221220a950792c94b890477f2d8e674cf7fce3fab14e72a6f378ea81b5746f84c4c35e64736f6c6343000801003360806040523480156200001157600080fd5b506040518060400160405280600c81526020017f555320446f6c6c617264204300000000000000000000000000000000000000008152506040518060400160405280600481526020017f555344430000000000000000000000000000000000000000000000000000000081525081600390805190602001906200009692919062000257565b508060049080519060200190620000af92919062000257565b505050620000ce3369d3c21bcecceda1000000620000d460201b60201c565b620004b3565b600073ffffffffffffffffffffffffffffffffffffffff168273ffffffffffffffffffffffffffffffffffffffff16141562000147576040517f08c379a00000000000000000000000000000000000000000000000000000000081526004016200013e906200033f565b60405180910390fd5b6200015b600083836200024d60201b60201c565b80600260008282546200016f91906200038f565b92505081905550806000808473ffffffffffffffffffffffffffffffffffffffff1673ffffffffffffffffffffffffffffffffffffffff1681526020019081526020016000206000828254620001c691906200038f565b925050819055508173ffffffffffffffffffffffffffffffffffffffff16600073ffffffffffffffffffffffffffffffffffffffff167fddf252ad1be2c89b69c2b068fc378daa952ba7f163c4a11628f55a4df523b3ef836040516200022d919062000361565b60405180910390a362000249600083836200025260201b60201c565b5050565b505050565b505050565b8280546200026590620003f6565b90600052602060002090601f016020900481019282620002895760008555620002d5565b82601f10620002a457805160ff1916838001178555620002d5565b82800160010185558215620002d5579182015b82811115620002d4578251825591602001919060010190620002b7565b5b509050620002e49190620002e8565b5090565b5b8082111562000303576000816000905550600101620002e9565b5090565b600062000316601f836200037e565b915062000323826200048a565b602082019050919050565b6200033981620003ec565b82525050565b600060208201905081810360008301526200035a8162000307565b9050919050565b60006020820190506200037860008301846200032e565b92915050565b600082825260208201905092915050565b60006200039c82620003ec565b9150620003a983620003ec565b9250827fffffffffffffffffffffffffffffffffffffffffffffffffffffffffffffffff03821115620003e157620003e06200042c565b5b828201905092915050565b6000819050919050565b600060028204905060018216806200040f57607f821691505b602082108114156200042657620004256200045b565b5b50919050565b7f4e487b7100000000000000000000000000000000000000000000000000000000600052601160045260246000fd5b7f4e487b7100000000000000000000000000000000000000000000000000000000600052602260045260246000fd5b7f45524332303a206d696e7420746f20746865207a65726f206164647265737300600082015250565b61133980620004c36000396000f3fe608060405234801561001057600080fd5b50600436106100a95760003560e01c80633950935111610071578063395093511461016857806370a082311461019857806395d89b41146101c8578063a457c2d7146101e6578063a9059cbb14610216578063dd62ed3e14610246576100a9565b806306fdde03146100ae578063095ea7b3146100cc57806318160ddd146100fc57806323b872dd1461011a578063313ce5671461014a575b600080fd5b6100b6610276565b6040516100c39190610dff565b60405180910390f35b6100e660048036038101906100e19190610c4d565b610308565b6040516100f39190610de4565b60405180910390f35b61010461032b565b6040516101119190610f01565b60405180910390f35b610134600480360381019061012f9190610bfe565b610335565b6040516101419190610de4565b60405180910390f35b610152610364565b60405161015f9190610f1c565b60405180910390f35b610182600480360381019061017d9190610c4d565b61036d565b60405161018f9190610de4565b60405180910390f35b6101b260048036038101906101ad9190610b99565b610417565b6040516101bf9190610f01565b60405180910390f35b6101d061045f565b6040516101dd9190610dff565b60405180910390f35b61020060048036038101906101fb9190610c4d565b6104f1565b60405161020d9190610de4565b60405180910390f35b610230600480360381019061022b9190610c4d565b6105db565b60405161023d9190610de4565b60405180910390f35b610260600480360381019061025b9190610bc2565b6105fe565b60405161026d9190610f01565b60405180910390f35b60606003805461028590611031565b80601f01602080910402602001604051908101604052809291908181526020018280546102b190611031565b80156102fe5780601f106102d3576101008083540402835291602001916102fe565b820191906000526020600020905b8154815290600101906020018083116102e157829003601f168201915b5050505050905090565b600080610313610685565b905061032081858561068d565b600191505092915050565b6000600254905090565b600080610340610685565b905061034d858285610858565b6103588585856108e4565b60019150509392505050565b60006012905090565b600080610378610685565b905061040c818585600160008673ffffffffffffffffffffffffffffffffffffffff1673ffffffffffffffffffffffffffffffffffffffff16815260200190815260200160002060008973ffffffffffffffffffffffffffffffffffffffff1673ffffffffffffffffffffffffffffffffffffffff168152602001908152602001600020546104079190610f53565b61068d565b600191505092915050565b60008060008373ffffffffffffffffffffffffffffffffffffffff1673ffffffffffffffffffffffffffffffffffffffff168152602001908152602001600020549050919050565b60606004805461046e90611031565b80601f016020809104026020016040519081016040528092919081815260200182805461049a90611031565b80156104e75780601f106104bc576101008083540402835291602001916104e7565b820191906000526020600020905b8154815290600101906020018083116104ca57829003601f168201915b5050505050905090565b6000806104fc610685565b90506000600160008373ffffffffffffffffffffffffffffffffffffffff1673ffffffffffffffffffffffffffffffffffffffff16815260200190815260200160002060008673ffffffffffffffffffffffffffffffffffffffff1673ffffffffffffffffffffffffffffffffffffffff168152602001908152602001600020549050838110156105c2576040517f08c379a00000000000000000000000000000000000000000000000000000000081526004016105b990610ee1565b60405180910390fd5b6105cf828686840361068d565b60019250505092915050565b6000806105e6610685565b90506105f38185856108e4565b600191505092915050565b6000600160008473ffffffffffffffffffffffffffffffffffffffff1673ffffffffffffffffffffffffffffffffffffffff16815260200190815260200160002060008373ffffffffffffffffffffffffffffffffffffffff1673ffffffffffffffffffffffffffffffffffffffff16815260200190815260200160002054905092915050565b600033905090565b600073ffffffffffffffffffffffffffffffffffffffff168373ffffffffffffffffffffffffffffffffffffffff1614156106fd576040517f08c379a00000000000000000000000000000000000000000000000000000000081526004016106f490610ec1565b60405180910390fd5b600073ffffffffffffffffffffffffffffffffffffffff168273ffffffffffffffffffffffffffffffffffffffff16141561076d576040517f08c379a000000000000000000000000000000000000000000000000000000000815260040161076490610e41565b60405180910390fd5b80600160008573ffffffffffffffffffffffffffffffffffffffff1673ffffffffffffffffffffffffffffffffffffffff16815260200190815260200160002060008473ffffffffffffffffffffffffffffffffffffffff1673ffffffffffffffffffffffffffffffffffffffff168152602001908152602001600020819055508173ffffffffffffffffffffffffffffffffffffffff168373ffffffffffffffffffffffffffffffffffffffff167f8c5be1e5ebec7d5bd14f71427d1e84f3dd0314c0f7b2291e5b200ac8c7c3b9258360405161084b9190610f01565b60405180910390a3505050565b600061086484846105fe565b90507fffffffffffffffffffffffffffffffffffffffffffffffffffffffffffffffff81146108de57818110156108d0576040517f08c379a00000000000000000000000000000000000000000000000000000000081526004016108c790610e61565b60405180910390fd5b6108dd848484840361068d565b5b50505050565b600073ffffffffffffffffffffffffffffffffffffffff168373ffffffffffffffffffffffffffffffffffffffff161415610954576040517f08c379a000000000000000000000000000000000000000000000000000000000815260040161094b90610ea1565b60405180910390fd5b600073ffffffffffffffffffffffffffffffffffffffff168273ffffffffffffffffffffffffffffffffffffffff1614156109c4576040517f08c379a00000000000000000000000000000000000000000000000000000000081526004016109bb90610e21565b60405180910390fd5b6109cf838383610b65565b60008060008573ffffffffffffffffffffffffffffffffffffffff1673ffffffffffffffffffffffffffffffffffffffff16815260200190815260200160002054905081811015610a55576040517f08c379a0000000000000000000000000000000000000000000000000000000008152600401610a4c90610e81565b60405180910390fd5b8181036000808673ffffffffffffffffffffffffffffffffffffffff1673ffffffffffffffffffffffffffffffffffffffff16815260200190815260200160002081905550816000808573ffffffffffffffffffffffffffffffffffffffff1673ffffffffffffffffffffffffffffffffffffffff1681526020019081526020016000206000828254610ae89190610f53565b925050819055508273ffffffffffffffffffffffffffffffffffffffff168473ffffffffffffffffffffffffffffffffffffffff167fddf252ad1be2c89b69c2b068fc378daa952ba7f163c4a11628f55a4df523b3ef84604051610b4c9190610f01565b60405180910390a3610b5f848484610b6a565b50505050565b505050565b505050565b600081359050610b7e816112d5565b92915050565b600081359050610b93816112ec565b92915050565b600060208284031215610bab57600080fd5b6000610bb984828501610b6f565b91505092915050565b60008060408385031215610bd557600080fd5b6000610be385828601610b6f565b9250506020610bf485828601610b6f565b9150509250929050565b600080600060608486031215610c1357600080fd5b6000610c2186828701610b6f565b9350506020610c3286828701610b6f565b9250506040610c4386828701610b84565b9150509250925092565b60008060408385031215610c6057600080fd5b6000610c6e85828601610b6f565b9250506020610c7f85828601610b84565b9150509250929050565b610c9281610fbb565b82525050565b6000610ca382610f37565b610cad8185610f42565b9350610cbd818560208601610ffe565b610cc6816110c1565b840191505092915050565b6000610cde602383610f42565b9150610ce9826110d2565b604082019050919050565b6000610d01602283610f42565b9150610d0c82611121565b604082019050919050565b6000610d24601d83610f42565b9150610d2f82611170565b602082019050919050565b6000610d47602683610f42565b9150610d5282611199565b604082019050919050565b6000610d6a602583610f42565b9150610d75826111e8565b604082019050919050565b6000610d8d602483610f42565b9150610d9882611237565b604082019050919050565b6000610db0602583610f42565b9150610dbb82611286565b604082019050919050565b610dcf81610fe7565b82525050565b610dde81610ff1565b82525050565b6000602082019050610df96000830184610c89565b92915050565b60006020820190508181036000830152610e198184610c98565b905092915050565b60006020820190508181036000830152610e3a81610cd1565b9050919050565b60006020820190508181036000830152610e5a81610cf4565b9050919050565b60006020820190508181036000830152610e7a81610d17565b9050919050565b60006020820190508181036000830152610e9a81610d3a565b9050919050565b60006020820190508181036000830152610eba81610d5d565b9050919050565b60006020820190508181036000830152610eda81610d80565b9050919050565b60006020820190508181036000830152610efa81610da3565b9050919050565b6000602082019050610f166000830184610dc6565b92915050565b6000602082019050610f316000830184610dd5565b92915050565b600081519050919050565b600082825260208201905092915050565b6000610f5e82610fe7565b9150610f6983610fe7565b9250827fffffffffffffffffffffffffffffffffffffffffffffffffffffffffffffffff03821115610f9e57610f9d611063565b5b828201905092915050565b6000610fb482610fc7565b9050919050565b60008115159050919050565b600073ffffffffffffffffffffffffffffffffffffffff82169050919050565b6000819050919050565b600060ff82169050919050565b60005b8381101561101c578082015181840152602081019050611001565b8381111561102b576000848401525b50505050565b6000600282049050600182168061104957607f821691505b6020821081141561105d5761105c611092565b5b50919050565b7f4e487b7100000000000000000000000000000000000000000000000000000000600052601160045260246000fd5b7f4e487b7100000000000000000000000000000000000000000000000000000000600052602260045260246000fd5b6000601f19601f8301169050919050565b7f45524332303a207472616e7366657220746f20746865207a65726f206164647260008201527f6573730000000000000000000000000000000000000000000000000000000000602082015250565b7f45524332303a20617070726f766520746f20746865207a65726f20616464726560008201527f7373000000000000000000000000000000000000000000000000000000000000602082015250565b7f45524332303a20696e73756666696369656e7420616c6c6f77616e6365000000600082015250565b7f45524332303a207472616e7366657220616d6f756e742065786365656473206260008201527f616c616e63650000000000000000000000000000000000000000000000000000602082015250565b7f45524332303a207472616e736665722066726f6d20746865207a65726f20616460008201527f6472657373000000000000000000000000000000000000000000000000000000602082015250565b7f45524332303a20617070726f76652066726f6d20746865207a65726f2061646460008201527f7265737300000000000000000000000000000000000000000000000000000000602082015250565b7f45524332303a2064656372656173656420616c6c6f77616e63652062656c6f7760008201527f207a65726f000000000000000000000000000000000000000000000000000000602082015250565b6112de81610fa9565b81146112e957600080fd5b50565b6112f581610fe7565b811461130057600080fd5b5056fea2646970667358221220e391c2911c5e1e6a2e3f49492d15faa0e5e119082743c61edafc347a10fb16db64736f6c63430008010033",
  "immutableReferences": {},
  "source": "// SPDX-License-Identifier: MIT\r\npragma solidity 0.8.1;\r\nimport \"./SafeMath.sol\";\r\nimport \"./GoodHoneyToken.sol\";\r\nimport \"./UsdcToken.sol\";\r\nimport \"@chainlink/contracts/src/v0.8/interfaces/AggregatorV3Interface.sol\";\r\n\r\n\r\ncontract Escrow {\r\n  using SafeMath for uint256;\r\n  \r\n  constructor(address _ethUsdAdress) public {\r\n      tokenGHN = new GoodHoneyToken();\r\n      tokenUSDC = new UsdcToken();\r\n      ethUsdAdress = _ethUsdAdress;\r\n  } \r\n\r\n  function balanceOfToken() external view returns(uint256) {\r\n      return ERC20(tokenGHN).balanceOf(msg.sender);\r\n  }\r\n  \r\n  address ethUsdAdress; // rinkeby = 0x8A753747A1Fa494EC906cE90E9f37563A8AF630e;\r\n  GoodHoneyToken public tokenGHN;\r\n  UsdcToken public tokenUSDC;\r\n  mapping (address => uint256) public payments;\r\n  uint256 public totalPayments;\r\n  /**\r\n  * @dev Called by the payer to store the sent amount as credit to be pulled.\r\n  * @param dest The destination address of the funds.\r\n  * @param amount The amount to transfer.\r\n  */\r\n  function asyncSend(address dest, uint256 amount) internal {\r\n      uint usdPrice = getUsdPrice(amount);\r\n      payments[dest] = payments[dest].add(usdPrice);\r\n      totalPayments = totalPayments.add(usdPrice);\r\n  }\r\n  /**\r\n  * @dev withdraw accumulated balance, called by payee.\r\n  */\r\n  function withdrawPaymentsUSDC(address dest) public payable {\r\n      require(payments[dest] != 0);\r\n      totalPayments = totalPayments.sub(payments[dest]);\r\n      uint amount = payments[dest]; // 10 GHNY = 1 USDC\r\n      payments[dest] = 0;\r\n      tokenUSDC.transfer(dest,amount);\r\n  }\r\n\r\n  function withdrawPaymentsGHNY(address dest) public payable {\r\n      require(payments[dest] != 0);\r\n      totalPayments = totalPayments.sub(payments[dest]);\r\n      uint amount = payments[dest] * 10;\r\n      payments[dest] = 0;\r\n      tokenGHN.transfer(dest,amount);\r\n  }\r\n\r\n  function SendMoneyTo(address dest, uint256 amount) public {\r\n      asyncSend(dest, amount);\r\n  }\r\n\r\n  function getThePrice(address chainlinkAddress) internal view returns (uint) {\r\n        (uint80 roundID,int price,uint startedAt,uint timeStamp,uint80 answeredInRound) = AggregatorV3Interface(chainlinkAddress).latestRoundData();\r\n        return uint(price);\r\n  }\r\n\r\n  function getUsdPrice(uint amount) public view returns (uint) {\r\n      uint price = 259700618610; //getThePrice(ethUsdAdress);\r\n      uint usdPrice = amount * price * 1e10;      \r\n      return usdPrice;\r\n  }\r\n}",
  "sourcePath": "C:/Node/GoodHive/contracts/Escrow.sol",
  "compiler": {
    "name": "solc",
    "version": "0.8.1+commit.df193b15.Emscripten.clang"
  },
  "schemaVersion": "3.4.1",
  "updatedAt": "2022-02-22T18:13:57.203Z",
  "networkType": "ethereum",
  "devdoc": {
    "kind": "dev",
    "methods": {
      "withdrawPaymentsUSDC(address)": {
        "details": "withdraw accumulated balance, called by payee."
      }
    },
    "version": 1
  },
  "userdoc": {
    "kind": "user",
    "methods": {},
    "version": 1
  }
}