{
  "contractName": "PullPayment",
  "abi": [
    {
      "inputs": [
        {
          "internalType": "address",
          "name": "",
          "type": "address"
        }
      ],
      "name": "payments",
      "outputs": [
        {
          "internalType": "uint256",
          "name": "",
          "type": "uint256"
        }
      ],
      "stateMutability": "view",
      "type": "function",
      "constant": true
    },
    {
      "inputs": [],
      "name": "totalPayments",
      "outputs": [
        {
          "internalType": "uint256",
          "name": "",
          "type": "uint256"
        }
      ],
      "stateMutability": "view",
      "type": "function",
      "constant": true
    },
    {
      "inputs": [],
      "name": "withdrawPayments",
      "outputs": [],
      "stateMutability": "payable",
      "type": "function",
      "payable": true
    }
  ],
  "bytecode": "0x608060405234801561001057600080fd5b506103a2806100206000396000f3fe6080604052600436106100335760003560e01c80625b4487146100385780636103d70b14610063578063e2982c211461006d575b600080fd5b34801561004457600080fd5b5061004d6100aa565b60405161005a919061029b565b60405180910390f35b61006b6100b0565b005b34801561007957600080fd5b50610094600480360381019061008f9190610263565b610220565b6040516100a1919061029b565b60405180910390f35b60015481565b60008060003373ffffffffffffffffffffffffffffffffffffffff1673ffffffffffffffffffffffffffffffffffffffff1681526020019081526020016000205414156100fc57600080fd5b61014f6000803373ffffffffffffffffffffffffffffffffffffffff1673ffffffffffffffffffffffffffffffffffffffff1681526020019081526020016000205460015461023890919063ffffffff16565b60018190555060008060003373ffffffffffffffffffffffffffffffffffffffff1673ffffffffffffffffffffffffffffffffffffffff168152602001908152602001600020819055503373ffffffffffffffffffffffffffffffffffffffff166108fc6000803373ffffffffffffffffffffffffffffffffffffffff1673ffffffffffffffffffffffffffffffffffffffff168152602001908152602001600020549081150290604051600060405180830381858888f1935050505015801561021d573d6000803e3d6000fd5b50565b60006020528060005260406000206000915090505481565b6000818361024691906102b6565b905092915050565b60008135905061025d81610355565b92915050565b60006020828403121561027557600080fd5b60006102838482850161024e565b91505092915050565b6102958161031c565b82525050565b60006020820190506102b0600083018461028c565b92915050565b60006102c18261031c565b91506102cc8361031c565b9250828210156102df576102de610326565b5b828203905092915050565b60006102f5826102fc565b9050919050565b600073ffffffffffffffffffffffffffffffffffffffff82169050919050565b6000819050919050565b7f4e487b7100000000000000000000000000000000000000000000000000000000600052601160045260246000fd5b61035e816102ea565b811461036957600080fd5b5056fea2646970667358221220c08b6477b91db10b363b697bb5e7a2be78d5b2f911a867fde08f7f42af5bb3f064736f6c63430008040033",
  "immutableReferences": {},
  "source": "// SPDX-License-Identifier: MIT\r\npragma solidity 0.8.4;\r\nimport \"./SafeMath.sol\";\r\ncontract PullPayment {\r\n  using SafeMath for uint256;\r\n  mapping (address => uint256) public payments;\r\n  uint256 public totalPayments;\r\n  /**\r\n  * @dev Called by the payer to store the sent amount as credit to be pulled.\r\n  * @param dest The destination address of the funds.\r\n  * @param amount The amount to transfer.\r\n  */\r\n  function asyncSend(address dest, uint256 amount) internal {\r\n      payments[dest] = payments[dest].add(amount);\r\n      totalPayments = totalPayments.add(amount);\r\n  }\r\n  /**\r\n  * @dev withdraw accumulated balance, called by payee.\r\n  */\r\n  function withdrawPayments() public payable {\r\n      require(payments[msg.sender] != 0);\r\n      totalPayments = totalPayments.sub(payments[msg.sender]);\r\n      payments[msg.sender] = 0;\r\n      payable(msg.sender).transfer(payments[msg.sender]);\r\n  }\r\n}",
  "sourcePath": "C:/Node/GoodHive/contracts/PullPayment.sol",
  "compiler": {
    "name": "solc",
    "version": "0.8.4+commit.c7e474f2.Emscripten.clang"
  },
  "schemaVersion": "3.4.1",
  "updatedAt": "2022-02-15T15:39:25.511Z",
  "networkType": "ethereum",
  "devdoc": {
    "kind": "dev",
    "methods": {
      "withdrawPayments()": {
        "details": "withdraw accumulated balance, called by payee."
      }
    },
    "version": 1
  },
  "userdoc": {
    "kind": "user",
    "methods": {},
    "version": 1
  }
}